{
  "contractName": "VestingVault",
  "abi": [
    {
      "inputs": [
        {
          "internalType": "contract ERC20",
          "name": "_token",
          "type": "address"
        }
      ],
      "stateMutability": "nonpayable",
      "type": "constructor"
    },
    {
      "anonymous": false,
      "inputs": [
        {
          "indexed": true,
          "internalType": "address",
          "name": "recipient",
          "type": "address"
        }
      ],
      "name": "GrantAdded",
      "type": "event"
    },
    {
      "anonymous": false,
      "inputs": [
        {
          "indexed": false,
          "internalType": "address",
          "name": "recipient",
          "type": "address"
        },
        {
          "indexed": false,
          "internalType": "uint256",
          "name": "amountVested",
          "type": "uint256"
        },
        {
          "indexed": false,
          "internalType": "uint256",
          "name": "amountNotVested",
          "type": "uint256"
        }
      ],
      "name": "GrantRevoked",
      "type": "event"
    },
    {
      "anonymous": false,
      "inputs": [
        {
          "indexed": true,
          "internalType": "address",
          "name": "recipient",
          "type": "address"
        },
        {
          "indexed": false,
          "internalType": "uint256",
          "name": "amountClaimed",
          "type": "uint256"
        }
      ],
      "name": "GrantTokensClaimed",
      "type": "event"
    },
    {
      "anonymous": false,
      "inputs": [
        {
          "indexed": true,
          "internalType": "address",
          "name": "previousOwner",
          "type": "address"
        },
        {
          "indexed": true,
          "internalType": "address",
          "name": "newOwner",
          "type": "address"
        }
      ],
      "name": "OwnershipTransferred",
      "type": "event"
    },
    {
      "inputs": [],
      "name": "owner",
      "outputs": [
        {
          "internalType": "address",
          "name": "",
          "type": "address"
        }
      ],
      "stateMutability": "view",
      "type": "function"
    },
    {
      "inputs": [],
      "name": "renounceOwnership",
      "outputs": [],
      "stateMutability": "nonpayable",
      "type": "function"
    },
    {
      "inputs": [],
      "name": "token",
      "outputs": [
        {
          "internalType": "contract ERC20",
          "name": "",
          "type": "address"
        }
      ],
      "stateMutability": "view",
      "type": "function"
    },
    {
      "inputs": [
        {
          "internalType": "address",
          "name": "newOwner",
          "type": "address"
        }
      ],
      "name": "transferOwnership",
      "outputs": [],
      "stateMutability": "nonpayable",
      "type": "function"
    },
    {
      "inputs": [
        {
          "internalType": "address",
          "name": "_recipient",
          "type": "address"
        },
        {
          "internalType": "uint256",
          "name": "_amount",
          "type": "uint256"
        },
        {
          "internalType": "uint16",
          "name": "_vestingDurationInDays",
          "type": "uint16"
        },
        {
          "internalType": "uint16",
          "name": "_vestingCliffInDays",
          "type": "uint16"
        }
      ],
      "name": "addTokenGrant",
      "outputs": [],
      "stateMutability": "nonpayable",
      "type": "function"
    },
    {
      "inputs": [],
      "name": "claimVestedTokens",
      "outputs": [],
      "stateMutability": "nonpayable",
      "type": "function"
    },
    {
      "inputs": [
        {
          "internalType": "address",
          "name": "_recipient",
          "type": "address"
        }
      ],
      "name": "revokeTokenGrant",
      "outputs": [],
      "stateMutability": "nonpayable",
      "type": "function"
    },
    {
      "inputs": [
        {
          "internalType": "address",
          "name": "_recipient",
          "type": "address"
        }
      ],
      "name": "getGrantAmount",
      "outputs": [
        {
          "internalType": "uint256",
          "name": "",
          "type": "uint256"
        }
      ],
      "stateMutability": "view",
      "type": "function"
    },
    {
      "inputs": [
        {
          "internalType": "address",
          "name": "_recipient",
          "type": "address"
        }
      ],
      "name": "calculateGrantClaim",
      "outputs": [
        {
          "internalType": "uint16",
          "name": "",
          "type": "uint16"
        },
        {
          "internalType": "uint256",
          "name": "",
          "type": "uint256"
        }
      ],
      "stateMutability": "view",
      "type": "function"
    }
  ],
  "bytecode": "0x608060405234801561001057600080fd5b50604051611b5e380380611b5e8339818101604052602081101561003357600080fd5b8101908080519060200190929190505050600061005461017360201b60201c565b9050806000806101000a81548173ffffffffffffffffffffffffffffffffffffffff021916908373ffffffffffffffffffffffffffffffffffffffff1602179055508073ffffffffffffffffffffffffffffffffffffffff16600073ffffffffffffffffffffffffffffffffffffffff167f8be0079c531659141344cd1fd0a4f28419497f9722a3daafe3b4186f6b6457e060405160405180910390a350600073ffffffffffffffffffffffffffffffffffffffff168173ffffffffffffffffffffffffffffffffffffffff16141561012c57600080fd5b80600160006101000a81548173ffffffffffffffffffffffffffffffffffffffff021916908373ffffffffffffffffffffffffffffffffffffffff1602179055505061017b565b600033905090565b6119d48061018a6000396000f3fe608060405234801561001057600080fd5b50600436106100935760003560e01c8063ccb365b911610066578063ccb365b914610198578063e74f3fbb146101dc578063f2fde38b146101e6578063fc0c546a1461022a578063fd75b8d41461025e57610093565b80636d72c24e14610098578063715018a6146100f057806384a198dc146100fa5780638da5cb5b14610164575b600080fd5b6100da600480360360208110156100ae57600080fd5b81019080803573ffffffffffffffffffffffffffffffffffffffff1690602001909291905050506102c1565b6040518082815260200191505060405180910390f35b6100f8610312565b005b6101626004803603608081101561011057600080fd5b81019080803573ffffffffffffffffffffffffffffffffffffffff16906020019092919080359060200190929190803561ffff169060200190929190803561ffff169060200190929190505050610498565b005b61016c610a27565b604051808273ffffffffffffffffffffffffffffffffffffffff16815260200191505060405180910390f35b6101da600480360360208110156101ae57600080fd5b81019080803573ffffffffffffffffffffffffffffffffffffffff169060200190929190505050610a50565b005b6101e4610e5b565b005b610228600480360360208110156101fc57600080fd5b81019080803573ffffffffffffffffffffffffffffffffffffffff16906020019092919050505061116d565b005b610232611378565b604051808273ffffffffffffffffffffffffffffffffffffffff16815260200191505060405180910390f35b6102a06004803603602081101561027457600080fd5b81019080803573ffffffffffffffffffffffffffffffffffffffff16906020019092919050505061139e565b604051808361ffff1681526020018281526020019250505060405180910390f35b600080600260008473ffffffffffffffffffffffffffffffffffffffff1673ffffffffffffffffffffffffffffffffffffffff16815260200190815260200160002090508060010154915050919050565b61031a6115a3565b73ffffffffffffffffffffffffffffffffffffffff1660008054906101000a900473ffffffffffffffffffffffffffffffffffffffff1673ffffffffffffffffffffffffffffffffffffffff16146103da576040517f08c379a00000000000000000000000000000000000000000000000000000000081526004018080602001828103825260208152602001807f4f776e61626c653a2063616c6c6572206973206e6f7420746865206f776e657281525060200191505060405180910390fd5b600073ffffffffffffffffffffffffffffffffffffffff1660008054906101000a900473ffffffffffffffffffffffffffffffffffffffff1673ffffffffffffffffffffffffffffffffffffffff167f8be0079c531659141344cd1fd0a4f28419497f9722a3daafe3b4186f6b6457e060405160405180910390a360008060006101000a81548173ffffffffffffffffffffffffffffffffffffffff021916908373ffffffffffffffffffffffffffffffffffffffff160217905550565b6104a06115a3565b73ffffffffffffffffffffffffffffffffffffffff1660008054906101000a900473ffffffffffffffffffffffffffffffffffffffff1673ffffffffffffffffffffffffffffffffffffffff1614610560576040517f08c379a00000000000000000000000000000000000000000000000000000000081526004018080602001828103825260208152602001807f4f776e61626c653a2063616c6c6572206973206e6f7420746865206f776e657281525060200191505060405180910390fd5b6000600260008673ffffffffffffffffffffffffffffffffffffffff1673ffffffffffffffffffffffffffffffffffffffff16815260200190815260200160002060010154146105fb576040517f08c379a00000000000000000000000000000000000000000000000000000000081526004018080602001828103825260288152602001806119566028913960400191505060405180910390fd5b610e428161ffff161115610677576040517f08c379a000000000000000000000000000000000000000000000000000000000815260040180806020018281038252601b8152602001807f436c6966662067726561746572207468616e203130207965617273000000000081525060200191505060405180910390fd5b6123a58261ffff1611156106f3576040517f08c379a000000000000000000000000000000000000000000000000000000000815260040180806020018281038252601e8152602001807f4475726174696f6e2067726561746572207468616e203235207965617273000081525060200191505060405180910390fd5b600061070c8361ffff16856115ab90919063ffffffff16565b905060008111610784576040517f08c379a00000000000000000000000000000000000000000000000000000000081526004018080602001828103825260168152602001807f616d6f756e74566573746564506572446179203e20300000000000000000000081525060200191505060405180910390fd5b600160009054906101000a900473ffffffffffffffffffffffffffffffffffffffff1673ffffffffffffffffffffffffffffffffffffffff166323b872dd6107ca610a27565b30876040518463ffffffff1660e01b8152600401808473ffffffffffffffffffffffffffffffffffffffff1681526020018373ffffffffffffffffffffffffffffffffffffffff1681526020018281526020019350505050602060405180830381600087803b15801561083c57600080fd5b505af1158015610850573d6000803e3d6000fd5b505050506040513d602081101561086657600080fd5b810190808051906020019092919050505061088057600080fd5b6108886118db565b6040518060c00160405280620151808561ffff160262ffffff166108aa6115f5565b0181526020018681526020018561ffff168152602001600061ffff168152602001600081526020018773ffffffffffffffffffffffffffffffffffffffff16815250905080600260008873ffffffffffffffffffffffffffffffffffffffff1673ffffffffffffffffffffffffffffffffffffffff168152602001908152602001600020600082015181600001556020820151816001015560408201518160020160006101000a81548161ffff021916908361ffff16021790555060608201518160020160026101000a81548161ffff021916908361ffff1602179055506080820151816003015560a08201518160040160006101000a81548173ffffffffffffffffffffffffffffffffffffffff021916908373ffffffffffffffffffffffffffffffffffffffff1602179055509050508573ffffffffffffffffffffffffffffffffffffffff167f9a9851ada408f5d02ebd667e2ff6d5ff1a413d6a745d878e7cbbe00b42e6b23e60405160405180910390a2505050505050565b60008060009054906101000a900473ffffffffffffffffffffffffffffffffffffffff16905090565b610a586115a3565b73ffffffffffffffffffffffffffffffffffffffff1660008054906101000a900473ffffffffffffffffffffffffffffffffffffffff1673ffffffffffffffffffffffffffffffffffffffff1614610b18576040517f08c379a00000000000000000000000000000000000000000000000000000000081526004018080602001828103825260208152602001807f4f776e61626c653a2063616c6c6572206973206e6f7420746865206f776e657281525060200191505060405180910390fd5b6000600260008373ffffffffffffffffffffffffffffffffffffffff1673ffffffffffffffffffffffffffffffffffffffff1681526020019081526020016000209050600080610b678461139e565b80925081935050506000610b9e82610b90866003015487600101546115fd90919063ffffffff16565b6115fd90919063ffffffff16565b9050600160009054906101000a900473ffffffffffffffffffffffffffffffffffffffff1673ffffffffffffffffffffffffffffffffffffffff1663a9059cbb610be6610a27565b836040518363ffffffff1660e01b8152600401808373ffffffffffffffffffffffffffffffffffffffff16815260200182815260200192505050602060405180830381600087803b158015610c3a57600080fd5b505af1158015610c4e573d6000803e3d6000fd5b505050506040513d6020811015610c6457600080fd5b8101908080519060200190929190505050610c7e57600080fd5b600160009054906101000a900473ffffffffffffffffffffffffffffffffffffffff1673ffffffffffffffffffffffffffffffffffffffff1663a9059cbb86846040518363ffffffff1660e01b8152600401808373ffffffffffffffffffffffffffffffffffffffff16815260200182815260200192505050602060405180830381600087803b158015610d1157600080fd5b505af1158015610d25573d6000803e3d6000fd5b505050506040513d6020811015610d3b57600080fd5b8101908080519060200190929190505050610d5557600080fd5b600084600001819055506000846001018190555060008460020160006101000a81548161ffff021916908361ffff16021790555060008460020160026101000a81548161ffff021916908361ffff1602179055506000846003018190555060008460040160006101000a81548173ffffffffffffffffffffffffffffffffffffffff021916908373ffffffffffffffffffffffffffffffffffffffff1602179055507fc6870a34750128e89b4206e933b691be9b75add27afc68678e3bc9261d39f144858383604051808473ffffffffffffffffffffffffffffffffffffffff168152602001838152602001828152602001935050505060405180910390a15050505050565b600080610e673361139e565b809250819350505060008111610ee5576040517f08c379a000000000000000000000000000000000000000000000000000000000815260040180806020018281038252600b8152602001807f566573746564206973203000000000000000000000000000000000000000000081525060200191505060405180910390fd5b6000600260003373ffffffffffffffffffffffffffffffffffffffff1673ffffffffffffffffffffffffffffffffffffffff1681526020019081526020016000209050610f558361ffff168260020160029054906101000a900461ffff1661ffff1661164790919063ffffffff16565b8160020160026101000a81548161ffff021916908361ffff160217905550610f8a82826003015461164790919063ffffffff16565b8160030181905550600160009054906101000a900473ffffffffffffffffffffffffffffffffffffffff1673ffffffffffffffffffffffffffffffffffffffff1663a9059cbb8260040160009054906101000a900473ffffffffffffffffffffffffffffffffffffffff16846040518363ffffffff1660e01b8152600401808373ffffffffffffffffffffffffffffffffffffffff16815260200182815260200192505050602060405180830381600087803b15801561104957600080fd5b505af115801561105d573d6000803e3d6000fd5b505050506040513d602081101561107357600080fd5b81019080805190602001909291905050506110f6576040517f08c379a00000000000000000000000000000000000000000000000000000000081526004018080602001828103825260098152602001807f6e6f20746f6b656e73000000000000000000000000000000000000000000000081525060200191505060405180910390fd5b8060040160009054906101000a900473ffffffffffffffffffffffffffffffffffffffff1673ffffffffffffffffffffffffffffffffffffffff167fc6cbb4aa8681b18644bf64921eea8f2b9f44cbd58d64fc07a110bfccc2038296836040518082815260200191505060405180910390a2505050565b6111756115a3565b73ffffffffffffffffffffffffffffffffffffffff1660008054906101000a900473ffffffffffffffffffffffffffffffffffffffff1673ffffffffffffffffffffffffffffffffffffffff1614611235576040517f08c379a00000000000000000000000000000000000000000000000000000000081526004018080602001828103825260208152602001807f4f776e61626c653a2063616c6c6572206973206e6f7420746865206f776e657281525060200191505060405180910390fd5b600073ffffffffffffffffffffffffffffffffffffffff168173ffffffffffffffffffffffffffffffffffffffff1614156112bb576040517f08c379a00000000000000000000000000000000000000000000000000000000081526004018080602001828103825260268152602001806119306026913960400191505060405180910390fd5b8073ffffffffffffffffffffffffffffffffffffffff1660008054906101000a900473ffffffffffffffffffffffffffffffffffffffff1673ffffffffffffffffffffffffffffffffffffffff167f8be0079c531659141344cd1fd0a4f28419497f9722a3daafe3b4186f6b6457e060405160405180910390a3806000806101000a81548173ffffffffffffffffffffffffffffffffffffffff021916908373ffffffffffffffffffffffffffffffffffffffff16021790555050565b600160009054906101000a900473ffffffffffffffffffffffffffffffffffffffff1681565b6000806000600260008573ffffffffffffffffffffffffffffffffffffffff1673ffffffffffffffffffffffffffffffffffffffff16815260200190815260200160002090508060010154816003015410611461576040517f08c379a00000000000000000000000000000000000000000000000000000000081526004018080602001828103825260138152602001807f4772616e742066756c6c7920636c61696d65640000000000000000000000000081525060200191505060405180910390fd5b806000015461146e6115f5565b101561148157600080925092505061159e565b60006114bb620151806114ad6201518085600001540361149f6115f5565b6115fd90919063ffffffff16565b6115ab90919063ffffffff16565b90508160020160009054906101000a900461ffff1661ffff1681106115195760006114f7836003015484600101546115fd90919063ffffffff16565b90508260020160009054906101000a900461ffff16819450945050505061159e565b60006115448360020160029054906101000a900461ffff1661ffff16836115fd90919063ffffffff16565b905060006115758460020160009054906101000a900461ffff1661ffff1685600101546115ab90919063ffffffff16565b90506000611590828461ffff166116cf90919063ffffffff16565b905082819650965050505050505b915091565b600033905090565b60006115ed83836040518060400160405280601a81526020017f536166654d6174683a206469766973696f6e206279207a65726f000000000000815250611755565b905092915050565b600042905090565b600061163f83836040518060400160405280601e81526020017f536166654d6174683a207375627472616374696f6e206f766572666c6f77000081525061181b565b905092915050565b6000808284019050838110156116c5576040517f08c379a000000000000000000000000000000000000000000000000000000000815260040180806020018281038252601b8152602001807f536166654d6174683a206164646974696f6e206f766572666c6f77000000000081525060200191505060405180910390fd5b8091505092915050565b6000808314156116e2576000905061174f565b60008284029050828482816116f357fe5b041461174a576040517f08c379a000000000000000000000000000000000000000000000000000000000815260040180806020018281038252602181526020018061197e6021913960400191505060405180910390fd5b809150505b92915050565b60008083118290611801576040517f08c379a00000000000000000000000000000000000000000000000000000000081526004018080602001828103825283818151815260200191508051906020019080838360005b838110156117c65780820151818401526020810190506117ab565b50505050905090810190601f1680156117f35780820380516001836020036101000a031916815260200191505b509250505060405180910390fd5b50600083858161180d57fe5b049050809150509392505050565b60008383111582906118c8576040517f08c379a00000000000000000000000000000000000000000000000000000000081526004018080602001828103825283818151815260200191508051906020019080838360005b8381101561188d578082015181840152602081019050611872565b50505050905090810190601f1680156118ba5780820380516001836020036101000a031916815260200191505b509250505060405180910390fd5b5060008385039050809150509392505050565b6040518060c001604052806000815260200160008152602001600061ffff168152602001600061ffff16815260200160008152602001600073ffffffffffffffffffffffffffffffffffffffff168152509056fe4f776e61626c653a206e6577206f776e657220697320746865207a65726f20616464726573734772616e7420616c7265616479206578697374732c206d757374207265766f6b652066697273742e536166654d6174683a206d756c7469706c69636174696f6e206f766572666c6f77a26469706673582212209199fe25df741f2ce212dddca790030971c4a9d96845c668e241d7131062889364736f6c63430007040033",
  "immutableReferences": {},
  "source": "// SPDX-License-Identifier: MIT\n\n/*\nOriginal work taken from https://gist.github.com/rstormsf/7cfb0c6b7a835c0c67b4a394b4fd9383\nHas been amended to use openzepplin Ownable and now only supports one grant per address for simplicity.\n*/\npragma solidity >=0.6.0 <0.8.0;\n\nimport \"./ERC20.sol\";\nimport \"./SafeMath.sol\";\nimport \"./Ownable.sol\";\n\ncontract VestingVault is Ownable {\n    using SafeMath for uint256;\n    using SafeMath for uint16;\n\n    struct Grant {\n        uint256 startTime;\n        uint256 amount;\n        uint16 vestingDuration;\n        uint16 daysClaimed;\n        uint256 totalClaimed;\n        address recipient;\n    }\n\n    event GrantAdded(address indexed recipient);\n    event GrantTokensClaimed(address indexed recipient, uint256 amountClaimed);\n    event GrantRevoked(address recipient, uint256 amountVested, uint256 amountNotVested);\n\n    ERC20 public token;\n    \n    mapping (address => Grant) private tokenGrants;\n\n    constructor(ERC20 _token) {\n        require(address(_token) != address(0));\n        token = _token;\n    }\n    \n    function addTokenGrant(\n        address _recipient,\n        uint256 _amount,\n        uint16 _vestingDurationInDays,\n        uint16 _vestingCliffInDays    \n    ) \n        external\n        onlyOwner\n    {\n        require(tokenGrants[_recipient].amount == 0, \"Grant already exists, must revoke first.\");\n        require(_vestingCliffInDays <= 10*365, \"Cliff greater than 10 years\");\n        require(_vestingDurationInDays <= 25*365, \"Duration greater than 25 years\");\n        \n        uint256 amountVestedPerDay = _amount.div(_vestingDurationInDays);\n        require(amountVestedPerDay > 0, \"amountVestedPerDay > 0\");\n\n        // Transfer the grant tokens under the control of the vesting contract\n        require(token.transferFrom(owner(), address(this), _amount));\n\n        Grant memory grant = Grant({\n            startTime: currentTime() + _vestingCliffInDays * 1 days,\n            amount: _amount,\n            vestingDuration: _vestingDurationInDays,\n            daysClaimed: 0,\n            totalClaimed: 0,\n            recipient: _recipient\n        });\n        tokenGrants[_recipient] = grant;\n        emit GrantAdded(_recipient);\n    }\n\n    /// @notice Allows a grant recipient to claim their vested tokens. Errors if no tokens have vested\n    function claimVestedTokens() external {\n        uint16 daysVested;\n        uint256 amountVested;\n        (daysVested, amountVested) = calculateGrantClaim(msg.sender);\n        require(amountVested > 0, \"Vested is 0\");\n\n        Grant storage tokenGrant = tokenGrants[msg.sender];\n        tokenGrant.daysClaimed = uint16(tokenGrant.daysClaimed.add(daysVested));\n        tokenGrant.totalClaimed = uint256(tokenGrant.totalClaimed.add(amountVested));\n        \n        require(token.transfer(tokenGrant.recipient, amountVested), \"no tokens\");\n        emit GrantTokensClaimed(tokenGrant.recipient, amountVested);\n    }\n\n    /// @notice Terminate token grant transferring all vested tokens to the `_recipient`\n    /// and returning all non-vested tokens to the contract owner\n    /// Secured to the contract owner only\n    /// @param _recipient address of the token grant recipient\n    function revokeTokenGrant(address _recipient) \n        external \n        onlyOwner\n    {\n        Grant storage tokenGrant = tokenGrants[_recipient];\n        uint16 daysVested;\n        uint256 amountVested;\n        (daysVested, amountVested) = calculateGrantClaim(_recipient);\n\n        uint256 amountNotVested = (tokenGrant.amount.sub(tokenGrant.totalClaimed)).sub(amountVested);\n\n        require(token.transfer(owner(), amountNotVested));\n        require(token.transfer(_recipient, amountVested));\n\n        tokenGrant.startTime = 0;\n        tokenGrant.amount = 0;\n        tokenGrant.vestingDuration = 0;\n        tokenGrant.daysClaimed = 0;\n        tokenGrant.totalClaimed = 0;\n        tokenGrant.recipient = address(0);\n\n        emit GrantRevoked(_recipient, amountVested, amountNotVested);\n    }\n\n    function getGrantStartTime(address _recipient) private view returns(uint256) {\n        Grant storage tokenGrant = tokenGrants[_recipient];\n        return tokenGrant.startTime;\n    }\n\n    function getGrantAmount(address _recipient) public view returns(uint256) {\n        Grant storage tokenGrant = tokenGrants[_recipient];\n        return tokenGrant.amount;\n    }\n\n    /// @notice Calculate the vested and unclaimed months and tokens available for `_grantId` to claim\n    /// Due to rounding errors once grant duration is reached, returns the entire left grant amount\n    /// Returns (0, 0) if cliff has not been reached\n    function calculateGrantClaim(address _recipient) public view returns (uint16, uint256) {\n        Grant storage tokenGrant = tokenGrants[_recipient];\n\n        require(tokenGrant.totalClaimed < tokenGrant.amount, \"Grant fully claimed\");\n\n        // For grants created with a future start date, that hasn't been reached, return 0, 0\n        if (currentTime() < tokenGrant.startTime) {\n            return (0, 0);\n        }\n\n        // Check cliff was reached\n        uint elapsedDays = currentTime().sub(tokenGrant.startTime - 1 days).div(1 days);\n\n        // If over vesting duration, all tokens vested\n        if (elapsedDays >= tokenGrant.vestingDuration) {\n            uint256 remainingGrant = tokenGrant.amount.sub(tokenGrant.totalClaimed);\n            return (tokenGrant.vestingDuration, remainingGrant);\n        } else {\n            uint16 daysVested = uint16(elapsedDays.sub(tokenGrant.daysClaimed));\n            uint256 amountVestedPerDay = tokenGrant.amount.div(uint256(tokenGrant.vestingDuration));\n            uint256 amountVested = uint256(daysVested.mul(amountVestedPerDay));\n            return (daysVested, amountVested);\n        }\n    }\n\n    function currentTime() private view returns(uint256) {\n        return block.timestamp;\n    }\n}",
  "sourcePath": "/home/phillipe/ralie-token/ralie-token/contracts/VestingVault.sol",
  "compiler": {
    "name": "solc",
    "version": "0.7.4+commit.3f05b770.Emscripten.clang"
  },
  "schemaVersion": "3.3.3",
  "updatedAt": "2021-02-21T20:25:40.349Z",
  "devdoc": {
    "kind": "dev",
    "methods": {
      "owner()": {
        "details": "Returns the address of the current owner."
      },
      "renounceOwnership()": {
        "details": "Leaves the contract without owner. It will not be possible to call `onlyOwner` functions anymore. Can only be called by the current owner. NOTE: Renouncing ownership will leave the contract without an owner, thereby removing any functionality that is only available to the owner."
      },
      "revokeTokenGrant(address)": {
        "params": {
          "_recipient": "address of the token grant recipient"
        }
      },
      "transferOwnership(address)": {
        "details": "Transfers ownership of the contract to a new account (`newOwner`). Can only be called by the current owner."
      }
    },
    "version": 1
  },
  "userdoc": {
    "kind": "user",
    "methods": {
      "calculateGrantClaim(address)": {
        "notice": "Calculate the vested and unclaimed months and tokens available for `_grantId` to claim Due to rounding errors once grant duration is reached, returns the entire left grant amount Returns (0, 0) if cliff has not been reached"
      },
      "claimVestedTokens()": {
        "notice": "Allows a grant recipient to claim their vested tokens. Errors if no tokens have vested"
      },
      "revokeTokenGrant(address)": {
        "notice": "Terminate token grant transferring all vested tokens to the `_recipient` and returning all non-vested tokens to the contract owner Secured to the contract owner only"
      }
    },
    "version": 1
  }
}